{
  "_format": "hh-sol-artifact-1",
  "contractName": "Meridian",
  "sourceName": "contracts/meridian.sol",
  "abi": [
    {
      "inputs": [
        {
          "internalType": "string",
          "name": "_collectionName",
          "type": "string"
        },
        {
          "internalType": "string",
          "name": "_collectionSymbol",
          "type": "string"
        },
        {
          "internalType": "string",
          "name": "_initMetadataURI",
          "type": "string"
        },
        {
          "internalType": "address[]",
          "name": "freeMinterAddresses",
          "type": "address[]"
        }
      ],
      "stateMutability": "nonpayable",
      "type": "constructor"
    },
    {
      "anonymous": false,
      "inputs": [
        {
          "indexed": true,
          "internalType": "address",
          "name": "owner",
          "type": "address"
        },
        {
          "indexed": true,
          "internalType": "address",
          "name": "approved",
          "type": "address"
        },
        {
          "indexed": true,
          "internalType": "uint256",
          "name": "tokenId",
          "type": "uint256"
        }
      ],
      "name": "Approval",
      "type": "event"
    },
    {
      "anonymous": false,
      "inputs": [
        {
          "indexed": true,
          "internalType": "address",
          "name": "owner",
          "type": "address"
        },
        {
          "indexed": true,
          "internalType": "address",
          "name": "operator",
          "type": "address"
        },
        {
          "indexed": false,
          "internalType": "bool",
          "name": "approved",
          "type": "bool"
        }
      ],
      "name": "ApprovalForAll",
      "type": "event"
    },
    {
      "anonymous": false,
      "inputs": [
        {
          "indexed": true,
          "internalType": "address",
          "name": "previousOwner",
          "type": "address"
        },
        {
          "indexed": true,
          "internalType": "address",
          "name": "newOwner",
          "type": "address"
        }
      ],
      "name": "OwnershipTransferred",
      "type": "event"
    },
    {
      "anonymous": false,
      "inputs": [
        {
          "indexed": true,
          "internalType": "address",
          "name": "from",
          "type": "address"
        },
        {
          "indexed": true,
          "internalType": "address",
          "name": "to",
          "type": "address"
        },
        {
          "indexed": true,
          "internalType": "uint256",
          "name": "tokenId",
          "type": "uint256"
        }
      ],
      "name": "Transfer",
      "type": "event"
    },
    {
      "inputs": [
        {
          "internalType": "uint64",
          "name": "",
          "type": "uint64"
        }
      ],
      "name": "accessoriesMap",
      "outputs": [
        {
          "internalType": "uint64",
          "name": "",
          "type": "uint64"
        }
      ],
      "stateMutability": "view",
      "type": "function"
    },
    {
      "inputs": [],
      "name": "accessoriesMask",
      "outputs": [
        {
          "internalType": "bytes8",
          "name": "",
          "type": "bytes8"
        }
      ],
      "stateMutability": "view",
      "type": "function"
    },
    {
      "inputs": [
        {
          "internalType": "address",
          "name": "to",
          "type": "address"
        },
        {
          "internalType": "uint256",
          "name": "tokenId",
          "type": "uint256"
        }
      ],
      "name": "approve",
      "outputs": [],
      "stateMutability": "nonpayable",
      "type": "function"
    },
    {
      "inputs": [],
      "name": "availableNFTs",
      "outputs": [
        {
          "internalType": "uint16",
          "name": "",
          "type": "uint16"
        }
      ],
      "stateMutability": "view",
      "type": "function"
    },
    {
      "inputs": [],
      "name": "availableTokens",
      "outputs": [
        {
          "internalType": "uint256",
          "name": "",
          "type": "uint256"
        }
      ],
      "stateMutability": "view",
      "type": "function"
    },
    {
      "inputs": [
        {
          "internalType": "uint64",
          "name": "",
          "type": "uint64"
        }
      ],
      "name": "backgroundMap",
      "outputs": [
        {
          "internalType": "uint64",
          "name": "",
          "type": "uint64"
        }
      ],
      "stateMutability": "view",
      "type": "function"
    },
    {
      "inputs": [],
      "name": "backgroundMask",
      "outputs": [
        {
          "internalType": "bytes8",
          "name": "",
          "type": "bytes8"
        }
      ],
      "stateMutability": "view",
      "type": "function"
    },
    {
      "inputs": [
        {
          "internalType": "address",
          "name": "owner",
          "type": "address"
        }
      ],
      "name": "balanceOf",
      "outputs": [
        {
          "internalType": "uint256",
          "name": "",
          "type": "uint256"
        }
      ],
      "stateMutability": "view",
      "type": "function"
    },
    {
      "inputs": [],
      "name": "baseMetadataURI",
      "outputs": [
        {
          "internalType": "string",
          "name": "",
          "type": "string"
        }
      ],
      "stateMutability": "view",
      "type": "function"
    },
    {
      "inputs": [
        {
          "internalType": "uint64",
          "name": "",
          "type": "uint64"
        }
      ],
      "name": "bootsMap",
      "outputs": [
        {
          "internalType": "uint64",
          "name": "",
          "type": "uint64"
        }
      ],
      "stateMutability": "view",
      "type": "function"
    },
    {
      "inputs": [],
      "name": "bootsMask",
      "outputs": [
        {
          "internalType": "bytes8",
          "name": "",
          "type": "bytes8"
        }
      ],
      "stateMutability": "view",
      "type": "function"
    },
    {
      "inputs": [
        {
          "internalType": "uint64",
          "name": "",
          "type": "uint64"
        }
      ],
      "name": "chestMap",
      "outputs": [
        {
          "internalType": "uint64",
          "name": "",
          "type": "uint64"
        }
      ],
      "stateMutability": "view",
      "type": "function"
    },
    {
      "inputs": [],
      "name": "chestMask",
      "outputs": [
        {
          "internalType": "bytes8",
          "name": "",
          "type": "bytes8"
        }
      ],
      "stateMutability": "view",
      "type": "function"
    },
    {
      "inputs": [],
      "name": "contractBalance",
      "outputs": [
        {
          "internalType": "uint256",
          "name": "",
          "type": "uint256"
        }
      ],
      "stateMutability": "view",
      "type": "function"
    },
    {
      "inputs": [],
      "name": "cost",
      "outputs": [
        {
          "internalType": "uint256",
          "name": "",
          "type": "uint256"
        }
      ],
      "stateMutability": "view",
      "type": "function"
    },
    {
      "inputs": [
        {
          "internalType": "uint64",
          "name": "",
          "type": "uint64"
        }
      ],
      "name": "existingCombinations",
      "outputs": [
        {
          "internalType": "uint8",
          "name": "",
          "type": "uint8"
        }
      ],
      "stateMutability": "view",
      "type": "function"
    },
    {
      "inputs": [],
      "name": "faceMask",
      "outputs": [
        {
          "internalType": "bytes8",
          "name": "",
          "type": "bytes8"
        }
      ],
      "stateMutability": "view",
      "type": "function"
    },
    {
      "inputs": [
        {
          "internalType": "uint256",
          "name": "tokenIdForCombination",
          "type": "uint256"
        }
      ],
      "name": "founder",
      "outputs": [
        {
          "internalType": "uint256",
          "name": "",
          "type": "uint256"
        }
      ],
      "stateMutability": "view",
      "type": "function"
    },
    {
      "inputs": [],
      "name": "founderMask",
      "outputs": [
        {
          "internalType": "bytes8",
          "name": "",
          "type": "bytes8"
        }
      ],
      "stateMutability": "view",
      "type": "function"
    },
    {
      "inputs": [],
      "name": "founders",
      "outputs": [
        {
          "internalType": "uint16",
          "name": "",
          "type": "uint16"
        }
      ],
      "stateMutability": "view",
      "type": "function"
    },
    {
      "inputs": [
        {
          "internalType": "uint64",
          "name": "traits",
          "type": "uint64"
        }
      ],
      "name": "freeMint",
      "outputs": [],
      "stateMutability": "nonpayable",
      "type": "function"
    },
    {
      "inputs": [
        {
          "internalType": "address",
          "name": "",
          "type": "address"
        }
      ],
      "name": "freeMintAddr",
      "outputs": [
        {
          "internalType": "uint8",
          "name": "",
          "type": "uint8"
        }
      ],
      "stateMutability": "view",
      "type": "function"
    },
    {
      "inputs": [
        {
          "internalType": "uint256",
          "name": "tokenId",
          "type": "uint256"
        }
      ],
      "name": "getApproved",
      "outputs": [
        {
          "internalType": "address",
          "name": "",
          "type": "address"
        }
      ],
      "stateMutability": "view",
      "type": "function"
    },
    {
      "inputs": [
        {
          "internalType": "uint64",
          "name": "",
          "type": "uint64"
        }
      ],
      "name": "groupMap",
      "outputs": [
        {
          "internalType": "uint64",
          "name": "",
          "type": "uint64"
        }
      ],
      "stateMutability": "view",
      "type": "function"
    },
    {
      "inputs": [],
      "name": "groupMask",
      "outputs": [
        {
          "internalType": "bytes8",
          "name": "",
          "type": "bytes8"
        }
      ],
      "stateMutability": "view",
      "type": "function"
    },
    {
      "inputs": [
        {
          "internalType": "uint64",
          "name": "",
          "type": "uint64"
        }
      ],
      "name": "handMap",
      "outputs": [
        {
          "internalType": "uint64",
          "name": "",
          "type": "uint64"
        }
      ],
      "stateMutability": "view",
      "type": "function"
    },
    {
      "inputs": [
        {
          "internalType": "uint64",
          "name": "",
          "type": "uint64"
        }
      ],
      "name": "headMap",
      "outputs": [
        {
          "internalType": "uint64",
          "name": "",
          "type": "uint64"
        }
      ],
      "stateMutability": "view",
      "type": "function"
    },
    {
      "inputs": [],
      "name": "headMask",
      "outputs": [
        {
          "internalType": "bytes8",
          "name": "",
          "type": "bytes8"
        }
      ],
      "stateMutability": "view",
      "type": "function"
    },
    {
      "inputs": [
        {
          "internalType": "address",
          "name": "owner",
          "type": "address"
        },
        {
          "internalType": "address",
          "name": "operator",
          "type": "address"
        }
      ],
      "name": "isApprovedForAll",
      "outputs": [
        {
          "internalType": "bool",
          "name": "",
          "type": "bool"
        }
      ],
      "stateMutability": "view",
      "type": "function"
    },
    {
      "inputs": [],
      "name": "lHandMask",
      "outputs": [
        {
          "internalType": "bytes8",
          "name": "",
          "type": "bytes8"
        }
      ],
      "stateMutability": "view",
      "type": "function"
    },
    {
      "inputs": [
        {
          "internalType": "uint64",
          "name": "",
          "type": "uint64"
        }
      ],
      "name": "legsMap",
      "outputs": [
        {
          "internalType": "uint64",
          "name": "",
          "type": "uint64"
        }
      ],
      "stateMutability": "view",
      "type": "function"
    },
    {
      "inputs": [],
      "name": "legsMask",
      "outputs": [
        {
          "internalType": "bytes8",
          "name": "",
          "type": "bytes8"
        }
      ],
      "stateMutability": "view",
      "type": "function"
    },
    {
      "inputs": [],
      "name": "maxTokensPerWallet",
      "outputs": [
        {
          "internalType": "uint8",
          "name": "",
          "type": "uint8"
        }
      ],
      "stateMutability": "view",
      "type": "function"
    },
    {
      "inputs": [
        {
          "internalType": "uint64",
          "name": "traits",
          "type": "uint64"
        }
      ],
      "name": "mint",
      "outputs": [],
      "stateMutability": "payable",
      "type": "function"
    },
    {
      "inputs": [],
      "name": "mintedNFTs",
      "outputs": [
        {
          "internalType": "uint16",
          "name": "",
          "type": "uint16"
        }
      ],
      "stateMutability": "view",
      "type": "function"
    },
    {
      "inputs": [],
      "name": "name",
      "outputs": [
        {
          "internalType": "string",
          "name": "",
          "type": "string"
        }
      ],
      "stateMutability": "view",
      "type": "function"
    },
    {
      "inputs": [],
      "name": "owner",
      "outputs": [
        {
          "internalType": "address",
          "name": "",
          "type": "address"
        }
      ],
      "stateMutability": "view",
      "type": "function"
    },
    {
      "inputs": [
        {
          "internalType": "uint256",
          "name": "tokenId",
          "type": "uint256"
        }
      ],
      "name": "ownerOf",
      "outputs": [
        {
          "internalType": "address",
          "name": "",
          "type": "address"
        }
      ],
      "stateMutability": "view",
      "type": "function"
    },
    {
      "inputs": [],
      "name": "poseMask",
      "outputs": [
        {
          "internalType": "bytes8",
          "name": "",
          "type": "bytes8"
        }
      ],
      "stateMutability": "view",
      "type": "function"
    },
    {
      "inputs": [],
      "name": "preSaleActive",
      "outputs": [
        {
          "internalType": "bool",
          "name": "",
          "type": "bool"
        }
      ],
      "stateMutability": "view",
      "type": "function"
    },
    {
      "inputs": [],
      "name": "preSaleCost",
      "outputs": [
        {
          "internalType": "uint256",
          "name": "",
          "type": "uint256"
        }
      ],
      "stateMutability": "view",
      "type": "function"
    },
    {
      "inputs": [],
      "name": "preSaleMaxTokens",
      "outputs": [
        {
          "internalType": "uint8",
          "name": "",
          "type": "uint8"
        }
      ],
      "stateMutability": "view",
      "type": "function"
    },
    {
      "inputs": [],
      "name": "preSaleNFTs",
      "outputs": [
        {
          "internalType": "uint16",
          "name": "",
          "type": "uint16"
        }
      ],
      "stateMutability": "view",
      "type": "function"
    },
    {
      "inputs": [],
      "name": "rHandMask",
      "outputs": [
        {
          "internalType": "bytes8",
          "name": "",
          "type": "bytes8"
        }
      ],
      "stateMutability": "view",
      "type": "function"
    },
    {
      "inputs": [],
      "name": "renounceOwnership",
      "outputs": [],
      "stateMutability": "nonpayable",
      "type": "function"
    },
    {
      "inputs": [
        {
          "internalType": "address",
          "name": "from",
          "type": "address"
        },
        {
          "internalType": "address",
          "name": "to",
          "type": "address"
        },
        {
          "internalType": "uint256",
          "name": "tokenId",
          "type": "uint256"
        }
      ],
      "name": "safeTransferFrom",
      "outputs": [],
      "stateMutability": "nonpayable",
      "type": "function"
    },
    {
      "inputs": [
        {
          "internalType": "address",
          "name": "from",
          "type": "address"
        },
        {
          "internalType": "address",
          "name": "to",
          "type": "address"
        },
        {
          "internalType": "uint256",
          "name": "tokenId",
          "type": "uint256"
        },
        {
          "internalType": "bytes",
          "name": "_data",
          "type": "bytes"
        }
      ],
      "name": "safeTransferFrom",
      "outputs": [],
      "stateMutability": "nonpayable",
      "type": "function"
    },
    {
      "inputs": [
        {
          "internalType": "address",
          "name": "operator",
          "type": "address"
        },
        {
          "internalType": "bool",
          "name": "approved",
          "type": "bool"
        }
      ],
      "name": "setApprovalForAll",
      "outputs": [],
      "stateMutability": "nonpayable",
      "type": "function"
    },
    {
      "inputs": [
        {
          "internalType": "address",
          "name": "minter",
          "type": "address"
        }
      ],
      "name": "setFreeMinter",
      "outputs": [],
      "stateMutability": "nonpayable",
      "type": "function"
    },
    {
      "inputs": [
        {
          "internalType": "uint8",
          "name": "value",
          "type": "uint8"
        }
      ],
      "name": "setMaximumTokensPerWallet",
      "outputs": [],
      "stateMutability": "nonpayable",
      "type": "function"
    },
    {
      "inputs": [
        {
          "internalType": "string",
          "name": "_newMetadataURI",
          "type": "string"
        }
      ],
      "name": "setMetadataBaseURI",
      "outputs": [],
      "stateMutability": "nonpayable",
      "type": "function"
    },
    {
      "inputs": [
        {
          "internalType": "bool",
          "name": "active",
          "type": "bool"
        }
      ],
      "name": "setPreSaleActive",
      "outputs": [],
      "stateMutability": "nonpayable",
      "type": "function"
    },
    {
      "inputs": [
        {
          "internalType": "bytes4",
          "name": "interfaceId",
          "type": "bytes4"
        }
      ],
      "name": "supportsInterface",
      "outputs": [
        {
          "internalType": "bool",
          "name": "",
          "type": "bool"
        }
      ],
      "stateMutability": "view",
      "type": "function"
    },
    {
      "inputs": [],
      "name": "symbol",
      "outputs": [
        {
          "internalType": "string",
          "name": "",
          "type": "string"
        }
      ],
      "stateMutability": "view",
      "type": "function"
    },
    {
      "inputs": [
        {
          "internalType": "address",
          "name": "wallet",
          "type": "address"
        }
      ],
      "name": "tokenForWallet",
      "outputs": [
        {
          "internalType": "uint256",
          "name": "",
          "type": "uint256"
        }
      ],
      "stateMutability": "view",
      "type": "function"
    },
    {
      "inputs": [],
      "name": "tokenId",
      "outputs": [
        {
          "internalType": "uint16",
          "name": "",
          "type": "uint16"
        }
      ],
      "stateMutability": "view",
      "type": "function"
    },
    {
      "inputs": [
        {
          "internalType": "uint256",
          "name": "",
          "type": "uint256"
        }
      ],
      "name": "tokenTraits",
      "outputs": [
        {
          "internalType": "bytes8",
          "name": "",
          "type": "bytes8"
        }
      ],
      "stateMutability": "view",
      "type": "function"
    },
    {
      "inputs": [
        {
          "internalType": "uint256",
          "name": "tokenId",
          "type": "uint256"
        }
      ],
      "name": "tokenURI",
      "outputs": [
        {
          "internalType": "string",
          "name": "",
          "type": "string"
        }
      ],
      "stateMutability": "view",
      "type": "function"
    },
    {
      "inputs": [
        {
          "internalType": "address",
          "name": "from",
          "type": "address"
        },
        {
          "internalType": "address",
          "name": "to",
          "type": "address"
        },
        {
          "internalType": "uint256",
          "name": "tokenId",
          "type": "uint256"
        }
      ],
      "name": "transferFrom",
      "outputs": [],
      "stateMutability": "nonpayable",
      "type": "function"
    },
    {
      "inputs": [
        {
          "internalType": "address",
          "name": "newOwner",
          "type": "address"
        }
      ],
      "name": "transferOwnership",
      "outputs": [],
      "stateMutability": "nonpayable",
      "type": "function"
    },
    {
      "inputs": [
        {
          "internalType": "address",
          "name": "",
          "type": "address"
        }
      ],
      "name": "walletToToken",
      "outputs": [
        {
          "internalType": "uint16",
          "name": "",
          "type": "uint16"
        }
      ],
      "stateMutability": "view",
      "type": "function"
    }
  ],
  "bytecode": "0x60806040526008805462ffffff1916620509c417905566d529ae9e860000600955600a805464ffffffffff191664080000271017905566f8b0a10e470000600b557c03f00000000000003c0000000000000040000000000000038000000000600f557a0f000000000000003000000000000007c000000000000008000000601055780700000000000000f80000000000000f00000000000000f0006011556012805461ffff19169055348015620000b557600080fd5b506040516200474f3803806200474f833981016040819052620000d8916200035c565b835184908490620000f190600090602085019062000225565b5080516200010790600190602084019062000225565b505050620001246200011e620001cf60201b60201c565b620001d3565b81516200013990600790602085019062000225565b5060005b8151811015620001c4576001600d60008484815181106200016e57634e487b7160e01b600052603260045260246000fd5b60200260200101516001600160a01b03166001600160a01b0316815260200190815260200160002060006101000a81548160ff021916908360ff1602179055508080620001bb9062000505565b9150506200013d565b505050505062000543565b3390565b600680546001600160a01b038381166001600160a01b0319831681179093556040519116919082907f8be0079c531659141344cd1fd0a4f28419497f9722a3daafe3b4186f6b6457e090600090a35050565b8280546200023390620004c8565b90600052602060002090601f016020900481019282620002575760008555620002a2565b82601f106200027257805160ff1916838001178555620002a2565b82800160010185558215620002a2579182015b82811115620002a257825182559160200191906001019062000285565b50620002b0929150620002b4565b5090565b5b80821115620002b05760008155600101620002b5565b600082601f830112620002dc578081fd5b81516001600160401b03811115620002f857620002f86200052d565b60206200030e601f8301601f1916820162000495565b828152858284870101111562000322578384fd5b835b838110156200034157858101830151828201840152820162000324565b838111156200035257848385840101525b5095945050505050565b6000806000806080858703121562000372578384fd5b84516001600160401b038082111562000389578586fd5b6200039788838901620002cb565b9550602091508187015181811115620003ae578586fd5b620003bc89828a01620002cb565b955050604087015181811115620003d1578485fd5b620003df89828a01620002cb565b945050606087015181811115620003f4578384fd5b8701601f8101891362000405578384fd5b8051828111156200041a576200041a6200052d565b8060051b92506200042d84840162000495565b8181528481019083860185850187018d101562000448578788fd5b8795505b838610156200048457805194506001600160a01b03851685146200046e578788fd5b848352600195909501949186019186016200044c565b50989b979a50959850505050505050565b604051601f8201601f191681016001600160401b0381118282101715620004c057620004c06200052d565b604052919050565b600181811c90821680620004dd57607f821691505b60208210811415620004ff57634e487b7160e01b600052602260045260246000fd5b50919050565b60006000198214156200052657634e487b7160e01b81526011600452602481fd5b5060010190565b634e487b7160e01b600052604160045260246000fd5b6141fc80620005536000396000f3fe6080604052600436106103a15760003560e01c806379d4d4ec116101e7578063c7be4a961161010d578063ea317fff116100a0578063f6a8cb731161006f578063f6a8cb7314610c3e578063fb6c292414610c5f578063fb94bd8a14610c80578063fb9d09c814610ca057600080fd5b8063ea317fff14610bc8578063ed1ee74814610be3578063f2fde38b14610c04578063f6463e3114610c2457600080fd5b8063e05c57bf116100dc578063e05c57bf14610af8578063e378671c14610b28578063e37c3a4414610b5e578063e985e9c514610b7f57600080fd5b8063c7be4a9614610a56578063c87b56dd14610a8c578063cc9ff9c614610aac578063dc7a871914610ac257600080fd5b80638b7afe2e116101855780639ee4432a116101545780639ee4432a146109cb578063a22cb465146109fb578063b88d4fde14610a1b578063c2ef2a1414610a3b57600080fd5b80638b7afe2e146109625780638da5cb5b1461097757806395d89b41146109955780639da28c13146109aa57600080fd5b806384494708116101c157806384494708146108b2578063859e1c5a146108d2578063864755d41461090857806386ffe00f1461094257600080fd5b806379d4d4ec1461083b5780637dbc48b0146108715780637f9c60e21461089157600080fd5b806342842e0e116102cc57806364d2e9d01161026a57806370a082311161023957806370a08231146107c4578063715018a6146107e4578063723799ab146107f9578063787b97b31461081a57600080fd5b806364d2e9d01461073857806369bb4dc21461075857806369e33f9b1461076d5780636b792518146107a357600080fd5b80635b2bd79e116102a65780635b2bd79e146106b35780635b2fd738146106c85780635c7bf658146106e85780636352211e1461071857600080fd5b806342842e0e1461064557806344e3cc2914610665578063469132ce1461067f57600080fd5b8063095ea7b31161034457806323b872dd1161031357806323b872dd1461058957806324ad3585146105a9578063334a3e4d146105df578063411b007e1461062a57600080fd5b8063095ea7b3146104ea5780630ae89b301461050a57806313faede61461055857806317d70f7c1461056e57600080fd5b806302be8bff1161038057806302be8bff1461043d57806303a1b24e1461045f57806306fdde0314610490578063081812fc146104b257600080fd5b80622fe620146103a657806301677661146103d957806301ffc9a71461040d575b600080fd5b3480156103b257600080fd5b506103c66103c1366004613e4f565b610cb3565b6040519081526020015b60405180910390f35b3480156103e557600080fd5b50600a546103fa9062010000900461ffff1681565b60405161ffff90911681526020016103d0565b34801561041957600080fd5b5061042d610428366004613dd2565b610cf9565b60405190151581526020016103d0565b34801561044957600080fd5b5061045d610458366004613e67565b610d4b565b005b34801561046b57600080fd5b506103fa61047a366004613c67565b600e6020526000908152604090205461ffff1681565b34801561049c57600080fd5b506104a5611b15565b6040516103d09190613f46565b3480156104be57600080fd5b506104d26104cd366004613e4f565b611ba7565b6040516001600160a01b0390911681526020016103d0565b3480156104f657600080fd5b5061045d610505366004613d8f565b611c3c565b34801561051657600080fd5b50610540610525366004613e67565b6016602052600090815260409020546001600160401b031681565b6040516001600160401b0390911681526020016103d0565b34801561056457600080fd5b506103c6600b5481565b34801561057a57600080fd5b50600c546103fa9061ffff1681565b34801561059557600080fd5b5061045d6105a4366004613cb3565b611d52565b3480156105b557600080fd5b506105406105c4366004613e67565b6019602052600090815260409020546001600160401b031681565b3480156105eb57600080fd5b506011546105f99060c01b81565b6040517fffffffffffffffff00000000000000000000000000000000000000000000000090911681526020016103d0565b34801561063657600080fd5b506012546103fa9061ffff1681565b34801561065157600080fd5b5061045d610660366004613cb3565b611dcd565b34801561067157600080fd5b50600f546105f99060c01b81565b34801561068b57600080fd5b50600a546106a190640100000000900460ff1681565b60405160ff90911681526020016103d0565b3480156106bf57600080fd5b506104a5611de8565b3480156106d457600080fd5b5061045d6106e3366004613c67565b611e76565b3480156106f457600080fd5b506106a1610703366004613e67565b601c6020526000908152604090205460ff1681565b34801561072457600080fd5b506104d2610733366004613e4f565b611ee2565b34801561074457600080fd5b5061045d610753366004613db8565b611f59565b34801561076457600080fd5b506103c6611fbd565b34801561077957600080fd5b50610540610788366004613e67565b6018602052600090815260409020546001600160401b031681565b3480156107af57600080fd5b506010546105f990600160c01b900460c01b81565b3480156107d057600080fd5b506103c66107df366004613c67565b611fe2565b3480156107f057600080fd5b5061045d612069565b34801561080557600080fd5b506011546105f990600160801b900460c01b81565b34801561082657600080fd5b50600f546105f990600160801b900460c01b81565b34801561084757600080fd5b50610540610856366004613e67565b6014602052600090815260409020546001600160401b031681565b34801561087d57600080fd5b5061045d61088c366004613e8e565b6120bd565b34801561089d57600080fd5b506011546105f990600160c01b900460c01b81565b3480156108be57600080fd5b50600c5461042d9062010000900460ff1681565b3480156108de57600080fd5b506105406108ed366004613e67565b601a602052600090815260409020546001600160401b031681565b34801561091457600080fd5b506103c6610923366004613c67565b6001600160a01b03166000908152600e602052604090205461ffff1690565b34801561094e57600080fd5b506008546106a19062010000900460ff1681565b34801561096e57600080fd5b506103c6612127565b34801561098357600080fd5b506006546001600160a01b03166104d2565b3480156109a157600080fd5b506104a5612177565b3480156109b657600080fd5b50600f546105f990600160c01b900460c01b81565b3480156109d757600080fd5b506106a16109e6366004613c67565b600d6020526000908152604090205460ff1681565b348015610a0757600080fd5b5061045d610a16366004613d66565b612186565b348015610a2757600080fd5b5061045d610a36366004613cee565b61224b565b348015610a4757600080fd5b506008546103fa9061ffff1681565b348015610a6257600080fd5b50610540610a71366004613e67565b6013602052600090815260409020546001600160401b031681565b348015610a9857600080fd5b506104a5610aa7366004613e4f565b6122cd565b348015610ab857600080fd5b506103c660095481565b348015610ace57600080fd5b50610540610add366004613e67565b6015602052600090815260409020546001600160401b031681565b348015610b0457600080fd5b506105f9610b13366004613e4f565b601b6020526000908152604090205460c01b81565b348015610b3457600080fd5b50610540610b43366004613e67565b6017602052600090815260409020546001600160401b031681565b348015610b6a57600080fd5b506011546105f990600160401b900460c01b81565b348015610b8b57600080fd5b5061042d610b9a366004613c81565b6001600160a01b03918216600090815260056020908152604080832093909416825291909152205460ff1690565b348015610bd457600080fd5b50600a546103fa9061ffff1681565b348015610bef57600080fd5b50600f546105f990600160401b900460c01b81565b348015610c1057600080fd5b5061045d610c1f366004613c67565b6123b6565b348015610c3057600080fd5b506010546105f99060c01b81565b348015610c4a57600080fd5b506010546105f990600160401b900460c01b81565b348015610c6b57600080fd5b506010546105f990600160801b900460c01b81565b348015610c8c57600080fd5b5061045d610c9b366004613e0a565b61246f565b61045d610cae366004613e67565b6124ce565b6000818152601b60205260408120546001600160401b0316610ce981600f5460c091821b600160401b90910490911b1660e61c90565b6001600160401b03169392505050565b60006001600160e01b031982166380ac58cd60e01b1480610d2a57506001600160e01b03198216635b5e139f60e01b145b80610d4557506301ffc9a760e01b6001600160e01b03198316145b92915050565b336000908152600d602052604090205460ff16610d6757600080fd5b6001600160401b0381166000908152601c602052604090205460ff1615610de35760405162461bcd60e51b815260206004820152602560248201527f436f6d62696e6174696f6e206f662074726169747320616c7265616479206d69604482015264373a32b21760d91b60648201526084015b60405180910390fd5b600a5460019061ffff80821691610e0291849162010000900416613fb6565b61ffff161115610e545760405162461bcd60e51b815260206004820181905260248201527f4d6178696d756d20617661696c61626c65204e4654732065786365656465642e6044820152606401610dda565b600a54640100000000900460ff16610e6b33611fe2565b1115610eb95760405162461bcd60e51b815260206004820152601f60248201527f4d6178696d756d20746f6b656e7320746f206d696e7420726561636865642e006044820152606401610dda565b600a8054610ed1919062010000900461ffff16614119565b61ffff16610f27576012805461ffff16906000610eed836140bf565b91906101000a81548161ffff021916908361ffff16021790555050610f2482600f5460c091821b600160401b909104821b17901c90565b91505b6000610f3e83600f5460c091821b911b1660e71c90565b90506000610f6084600f5460c091821b600160c01b90910490911b1660dc1c90565b90506000610f828560105460c091821b600160401b90910490911b1660d61c90565b90506000610fa48660105460c091821b600160c01b90910490911b1660d01c90565b90506000610fbd8760115460c091821b911b1660cc1c90565b90506000610fdf8860115460c091821b600160801b90910490911b1660c31c90565b90506000610fff8960115460c091821b600160c01b909104821b16901c90565b905060006110218a600f5460c091821b600160801b90910490911b1660e21c90565b905060006110438b60105460c091821b600160801b90910490911b1660d41c90565b905060006110658c60115460c091821b600160401b90910490911b1660c81c90565b9050600061107e8d60105460c091821b911b1660db1c90565b90506001600160401b038b161580156110a05750826001600160401b03166001145b80156110b557506003856001600160401b0316115b156110d25760405162461bcd60e51b8152600401610dda90613f59565b6001600160401b038b161580156110f25750826001600160401b03166002145b801561110757506001856001600160401b0316115b156111245760405162461bcd60e51b8152600401610dda90613f59565b8a6001600160401b031660011480156111465750826001600160401b03166002145b801561115b57506004856001600160401b0316115b156111785760405162461bcd60e51b8152600401610dda90613f59565b8a6001600160401b0316600214801561119a5750826001600160401b03166002145b80156111af57506004856001600160401b0316115b156111cc5760405162461bcd60e51b8152600401610dda90613f59565b8a6001600160401b031660031480156111ee5750826001600160401b03166001145b801561120357506006856001600160401b0316115b156112205760405162461bcd60e51b8152600401610dda90613f59565b8a6001600160401b031660031480156112425750826001600160401b03166002145b801561125757506003856001600160401b0316115b156112745760405162461bcd60e51b8152600401610dda90613f59565b8a6001600160401b031660041480156112965750826001600160401b03166002145b80156112ab57506003856001600160401b0316115b156112c85760405162461bcd60e51b8152600401610dda90613f59565b60048b6001600160401b0316111580156112e0575060015b6113375760405162461bcd60e51b815260206004820152602260248201527f47726f7570207472616974206e6f7420696e2072657175697265642072616e67604482015261329760f11b6064820152608401610dda565b60268a6001600160401b03161115801561134f575060015b6113a55760405162461bcd60e51b815260206004820152602160248201527f48656164207472616974206e6f7420696e2072657175697265642072616e67656044820152601760f91b6064820152608401610dda565b6012896001600160401b0316111580156113bd575060015b6114145760405162461bcd60e51b815260206004820152602260248201527f4368657374207472616974206e6f7420696e2072657175697265642072616e67604482015261329760f11b6064820152608401610dda565b600e886001600160401b03161115801561142c575060015b6114825760405162461bcd60e51b815260206004820152602160248201527f4c656773207472616974206e6f7420696e2072657175697265642072616e67656044820152601760f91b6064820152608401610dda565b600e876001600160401b03161115801561149a575060015b6114f15760405162461bcd60e51b815260206004820152602260248201527f426f6f7473207472616974206e6f7420696e2072657175697265642072616e67604482015261329760f11b6064820152608401610dda565b601d866001600160401b031611158015611509575060015b6115645760405162461bcd60e51b815260206004820152602660248201527f4c6566742068616e64207472616974206e6f7420696e207265717569726564206044820152653930b733b29760d11b6064820152608401610dda565b600a846001600160401b03161115801561157c575060015b6115d85760405162461bcd60e51b815260206004820152602760248201527f4261636b67726f756e64207472616974206e6f7420696e207265717569726564604482015266103930b733b29760c91b6064820152608401610dda565b6007856001600160401b0316111580156115f0575060015b61164c5760405162461bcd60e51b815260206004820152602760248201527f52696768742068616e64207472616974206e6f7420696e207265717569726564604482015266103930b733b29760c91b6064820152608401610dda565b6002836001600160401b031611158015611664575060015b6116ba5760405162461bcd60e51b815260206004820152602160248201527f506f7365207472616974206e6f7420696e2072657175697265642072616e67656044820152601760f91b6064820152608401610dda565b6001816001600160401b0316111580156116d2575060015b6117285760405162461bcd60e51b815260206004820152602160248201527f46616365207472616974206e6f7420696e2072657175697265642072616e67656044820152601760f91b6064820152608401610dda565b6009826001600160401b031611158015611740575060015b61179d5760405162461bcd60e51b815260206004820152602860248201527f4163636573736f72696573207472616974206e6f7420696e207265717569726560448201526732103930b733b29760c11b6064820152608401610dda565b600c546117af90339061ffff166132e6565b6001600160401b03808c166000908152601360205260408120805490921691906117d8836140fc565b82546101009290920a6001600160401b038181021990931691831602179091558b8116600090815260146020526040812080549092169250611819836140fc565b82546101009290920a6001600160401b038181021990931691831602179091558a811660009081526015602052604081208054909216925061185a836140fc565b82546101009290920a6001600160401b0381810219909316918316021790915589811660009081526016602052604081208054909216925061189b836140fc565b82546101009290920a6001600160401b038181021990931691831602179091558881166000908152601760205260408120805490921692506118dc836140fc565b82546101009290920a6001600160401b0381810219909316918316021790915587811660009081526018602052604081208054909216925061191d836140fc565b82546101009290920a6001600160401b0381810219909316918316021790915585811660009081526019602052604081208054909216925061195e836140fc565b82546101009290920a6001600160401b038181021990931691831602179091558381166000908152601a602052604081208054909216925061199f836140fc565b91906101000a8154816001600160401b0302191690836001600160401b03160217905550508c60c01b601b6000600c60009054906101000a900461ffff1661ffff16815260200190815260200160002060006101000a8154816001600160401b03021916908360c01c02179055506001601c60008f6001600160401b03166001600160401b0316815260200190815260200160002060006101000a81548160ff021916908360ff160217905550600c60009054906101000a900461ffff16600e6000336001600160a01b03166001600160a01b0316815260200190815260200160002060006101000a81548161ffff021916908361ffff160217905550600a600281819054906101000a900461ffff1680929190611abc906140bf565b82546101009290920a61ffff818102199093169183160217909155600c805490911691506000611aeb836140bf565b91906101000a81548161ffff021916908361ffff1602179055505050505050505050505050505050565b606060008054611b2490614084565b80601f0160208091040260200160405190810160405280929190818152602001828054611b5090614084565b8015611b9d5780601f10611b7257610100808354040283529160200191611b9d565b820191906000526020600020905b815481529060010190602001808311611b8057829003601f168201915b5050505050905090565b6000818152600260205260408120546001600160a01b0316611c205760405162461bcd60e51b815260206004820152602c60248201527f4552433732313a20617070726f76656420717565727920666f72206e6f6e657860448201526b34b9ba32b73a103a37b5b2b760a11b6064820152608401610dda565b506000908152600460205260409020546001600160a01b031690565b6000611c4782611ee2565b9050806001600160a01b0316836001600160a01b03161415611cb55760405162461bcd60e51b815260206004820152602160248201527f4552433732313a20617070726f76616c20746f2063757272656e74206f776e656044820152603960f91b6064820152608401610dda565b336001600160a01b0382161480611cd15750611cd18133610b9a565b611d435760405162461bcd60e51b815260206004820152603860248201527f4552433732313a20617070726f76652063616c6c6572206973206e6f74206f7760448201527f6e6572206e6f7220617070726f76656420666f7220616c6c00000000000000006064820152608401610dda565b611d4d8383613300565b505050565b611d5c338261336e565b611dc25760405162461bcd60e51b815260206004820152603160248201527f4552433732313a207472616e736665722063616c6c6572206973206e6f74206f6044820152701ddb995c881b9bdc88185c1c1c9bdd9959607a1b6064820152608401610dda565b611d4d838383613465565b611d4d8383836040518060200160405280600081525061224b565b60078054611df590614084565b80601f0160208091040260200160405190810160405280929190818152602001828054611e2190614084565b8015611e6e5780601f10611e4357610100808354040283529160200191611e6e565b820191906000526020600020905b815481529060010190602001808311611e5157829003601f168201915b505050505081565b6006546001600160a01b03163314611ebe5760405162461bcd60e51b815260206004820181905260248201526000805160206141a78339815191526044820152606401610dda565b6001600160a01b03166000908152600d60205260409020805460ff19166001179055565b6000818152600260205260408120546001600160a01b031680610d455760405162461bcd60e51b815260206004820152602960248201527f4552433732313a206f776e657220717565727920666f72206e6f6e657869737460448201526832b73a103a37b5b2b760b91b6064820152608401610dda565b6006546001600160a01b03163314611fa15760405162461bcd60e51b815260206004820181905260248201526000805160206141a78339815191526044820152606401610dda565b600c8054911515620100000262ff000019909216919091179055565b600a54600090611fd99061ffff6201000082048116911661401e565b61ffff16905090565b60006001600160a01b03821661204d5760405162461bcd60e51b815260206004820152602a60248201527f4552433732313a2062616c616e636520717565727920666f7220746865207a65604482015269726f206164647265737360b01b6064820152608401610dda565b506001600160a01b031660009081526003602052604090205490565b6006546001600160a01b031633146120b15760405162461bcd60e51b815260206004820181905260248201526000805160206141a78339815191526044820152606401610dda565b6120bb6000613605565b565b6006546001600160a01b031633146121055760405162461bcd60e51b815260206004820181905260248201526000805160206141a78339815191526044820152606401610dda565b600a805460ff9092166401000000000264ff0000000019909216919091179055565b6006546000906001600160a01b031633146121725760405162461bcd60e51b815260206004820181905260248201526000805160206141a78339815191526044820152606401610dda565b504790565b606060018054611b2490614084565b6001600160a01b0382163314156121df5760405162461bcd60e51b815260206004820152601960248201527f4552433732313a20617070726f766520746f2063616c6c6572000000000000006044820152606401610dda565b3360008181526005602090815260408083206001600160a01b03871680855290835292819020805460ff191686151590811790915590519081529192917f17307eab39ab6107e8899845ad3d59bd9653f200f220920489ca2b5937696c31910160405180910390a35050565b612255338361336e565b6122bb5760405162461bcd60e51b815260206004820152603160248201527f4552433732313a207472616e736665722063616c6c6572206973206e6f74206f6044820152701ddb995c881b9bdc88185c1c1c9bdd9959607a1b6064820152608401610dda565b6122c784848484613657565b50505050565b6000818152600260205260409020546060906001600160a01b031661235a5760405162461bcd60e51b815260206004820152602f60248201527f4552433732314d657461646174613a2055524920717565727920666f72206e6f60448201527f6e6578697374656e7420746f6b656e00000000000000000000000000000000006064820152608401610dda565b60006123646136d5565b9050600081511161238457604051806020016040528060008152506123af565b8061238e846136e4565b60405160200161239f929190613edb565b6040516020818303038152906040525b9392505050565b6006546001600160a01b031633146123fe5760405162461bcd60e51b815260206004820181905260248201526000805160206141a78339815191526044820152606401610dda565b6001600160a01b0381166124635760405162461bcd60e51b815260206004820152602660248201527f4f776e61626c653a206e6577206f776e657220697320746865207a65726f206160448201526564647265737360d01b6064820152608401610dda565b61246c81613605565b50565b6006546001600160a01b031633146124b75760405162461bcd60e51b815260206004820181905260248201526000805160206141a78339815191526044820152606401610dda565b80516124ca906007906020840190613b2d565b5050565b6001600160401b0381166000908152601c602052604090205460ff16156125455760405162461bcd60e51b815260206004820152602560248201527f436f6d62696e6174696f6e206f662074726169747320616c7265616479206d69604482015264373a32b21760d91b6064820152608401610dda565b600c5460019062010000900460ff16156126bf57600854600a5461ffff9182169161257c9160ff8516916201000090910416613fb6565b61ffff1611156125e35760405162461bcd60e51b815260206004820152602c60248201527f4d6178696d756d20617661696c61626c65204e46547320666f7220707265736160448201526b36329032bc31b2b2b232b21760a11b6064820152608401610dda565b60085462010000900460ff166125f833611fe2565b111561265a5760405162461bcd60e51b815260206004820152602b60248201527f4d6178696d756d20746f6b656e7320746f206d696e742072656163686564206660448201526a37b910383932b9b0b6329760a91b6064820152608401610dda565b8060ff1660095461266b9190613fff565b3410156126ba5760405162461bcd60e51b815260206004820152601f60248201527f4e6f7420656e6f7567682066756e647320746f206d696e6420746f6b656e2e006044820152606401610dda565b6127f5565b600a5461ffff808216916126de9160ff85169162010000900416613fb6565b61ffff1611156127305760405162461bcd60e51b815260206004820181905260248201527f4d6178696d756d20617661696c61626c65204e4654732065786365656465642e6044820152606401610dda565b600a54640100000000900460ff1661274733611fe2565b11156127955760405162461bcd60e51b815260206004820152601f60248201527f4d6178696d756d20746f6b656e7320746f206d696e7420726561636865642e006044820152606401610dda565b8060ff16600b546127a69190613fff565b3410156127f55760405162461bcd60e51b815260206004820152601f60248201527f4e6f7420656e6f7567682066756e647320746f206d696e6420746f6b656e2e006044820152606401610dda565b600a805461280e9062010000900461ffff166001613fb6565b6128189190614119565b61ffff1661286e576012805461ffff16906000612834836140bf565b91906101000a81548161ffff021916908361ffff1602179055505061286b82600f5460c091821b600160401b909104821b17901c90565b91505b600061288583600f5460c091821b911b1660e71c90565b905060006128a784600f5460c091821b600160c01b90910490911b1660dc1c90565b905060006128c98560105460c091821b600160401b90910490911b1660d61c90565b905060006128eb8660105460c091821b600160c01b90910490911b1660d01c90565b905060006129048760115460c091821b911b1660cc1c90565b905060006129268860115460c091821b600160801b90910490911b1660c31c90565b905060006129468960115460c091821b600160c01b909104821b16901c90565b905060006129688a60105460c091821b600160801b90910490911b1660d41c90565b9050600061298a8b60115460c091821b600160401b90910490911b1660c81c90565b905060006129a38c60105460c091821b911b1660db1c90565b905060006129c58d600f5460c091821b600160801b90910490911b1660e21c90565b90506001600160401b038b161580156129e75750836001600160401b03166001145b80156129fc57506003856001600160401b0316115b15612a195760405162461bcd60e51b8152600401610dda90613f59565b6001600160401b038b16158015612a395750836001600160401b03166002145b8015612a4e57506001856001600160401b0316115b15612a6b5760405162461bcd60e51b8152600401610dda90613f59565b8a6001600160401b03166001148015612a8d5750836001600160401b03166002145b8015612aa257506004856001600160401b0316115b15612abf5760405162461bcd60e51b8152600401610dda90613f59565b8a6001600160401b03166002148015612ae15750836001600160401b03166002145b8015612af657506004856001600160401b0316115b15612b135760405162461bcd60e51b8152600401610dda90613f59565b8a6001600160401b03166003148015612b355750836001600160401b03166001145b8015612b4a57506006856001600160401b0316115b15612b675760405162461bcd60e51b8152600401610dda90613f59565b8a6001600160401b03166003148015612b895750836001600160401b03166002145b8015612b9e57506003856001600160401b0316115b15612bbb5760405162461bcd60e51b8152600401610dda90613f59565b8a6001600160401b03166004148015612bdd5750836001600160401b03166002145b8015612bf257506003856001600160401b0316115b15612c0f5760405162461bcd60e51b8152600401610dda90613f59565b60048b6001600160401b031611158015612c27575060015b612c7e5760405162461bcd60e51b815260206004820152602260248201527f47726f7570207472616974206e6f7420696e2072657175697265642072616e67604482015261329760f11b6064820152608401610dda565b60268a6001600160401b031611158015612c96575060015b612cec5760405162461bcd60e51b815260206004820152602160248201527f48656164207472616974206e6f7420696e2072657175697265642072616e67656044820152601760f91b6064820152608401610dda565b6012896001600160401b031611158015612d04575060015b612d5b5760405162461bcd60e51b815260206004820152602260248201527f4368657374207472616974206e6f7420696e2072657175697265642072616e67604482015261329760f11b6064820152608401610dda565b600e886001600160401b031611158015612d73575060015b612dc95760405162461bcd60e51b815260206004820152602160248201527f4c656773207472616974206e6f7420696e2072657175697265642072616e67656044820152601760f91b6064820152608401610dda565b600e876001600160401b031611158015612de1575060015b612e385760405162461bcd60e51b815260206004820152602260248201527f426f6f7473207472616974206e6f7420696e2072657175697265642072616e67604482015261329760f11b6064820152608401610dda565b601c866001600160401b031611158015612e50575060015b612eab5760405162461bcd60e51b815260206004820152602660248201527f4c6566742068616e64207472616974206e6f7420696e207265717569726564206044820152653930b733b29760d11b6064820152608401610dda565b6007856001600160401b031611158015612ec3575060015b612f1f5760405162461bcd60e51b815260206004820152602760248201527f52696768742068616e64207472616974206e6f7420696e207265717569726564604482015266103930b733b29760c91b6064820152608401610dda565b600a816001600160401b031611158015612f37575060015b612f935760405162461bcd60e51b815260206004820152602760248201527f4261636b67726f756e64207472616974206e6f7420696e207265717569726564604482015266103930b733b29760c91b6064820152608401610dda565b6002846001600160401b031611158015612fab575060015b6130015760405162461bcd60e51b815260206004820152602160248201527f506f7365207472616974206e6f7420696e2072657175697265642072616e67656044820152601760f91b6064820152608401610dda565b6001826001600160401b031611158015613019575060015b61306f5760405162461bcd60e51b815260206004820152602160248201527f46616365207472616974206e6f7420696e2072657175697265642072616e67656044820152601760f91b6064820152608401610dda565b6009836001600160401b031611158015613087575060015b6130e45760405162461bcd60e51b815260206004820152602860248201527f4163636573736f72696573207472616974206e6f7420696e207265717569726560448201526732103930b733b29760c11b6064820152608401610dda565b600c546130f690339061ffff166132e6565b6001600160401b03808c1660009081526013602052604081208054909216919061311f836140fc565b82546101009290920a6001600160401b038181021990931691831602179091558b8116600090815260146020526040812080549092169250613160836140fc565b82546101009290920a6001600160401b038181021990931691831602179091558a81166000908152601560205260408120805490921692506131a1836140fc565b82546101009290920a6001600160401b038181021990931691831602179091558981166000908152601660205260408120805490921692506131e2836140fc565b82546101009290920a6001600160401b03818102199093169183160217909155888116600090815260176020526040812080549092169250613223836140fc565b82546101009290920a6001600160401b03818102199093169183160217909155878116600090815260186020526040812080549092169250613264836140fc565b82546101009290920a6001600160401b038181021990931691831602179091558281166000908152601960205260408120805490921692506132a5836140fc565b82546101009290920a6001600160401b038181021990931691831602179091558481166000908152601a602052604081208054909216925061199f836140fc565b6124ca828260405180602001604052806000815250613815565b600081815260046020526040902080546001600160a01b0319166001600160a01b038416908117909155819061333582611ee2565b6001600160a01b03167f8c5be1e5ebec7d5bd14f71427d1e84f3dd0314c0f7b2291e5b200ac8c7c3b92560405160405180910390a45050565b6000818152600260205260408120546001600160a01b03166133e75760405162461bcd60e51b815260206004820152602c60248201527f4552433732313a206f70657261746f7220717565727920666f72206e6f6e657860448201526b34b9ba32b73a103a37b5b2b760a11b6064820152608401610dda565b60006133f283611ee2565b9050806001600160a01b0316846001600160a01b0316148061342d5750836001600160a01b031661342284611ba7565b6001600160a01b0316145b8061345d57506001600160a01b0380821660009081526005602090815260408083209388168352929052205460ff165b949350505050565b826001600160a01b031661347882611ee2565b6001600160a01b0316146134e05760405162461bcd60e51b815260206004820152602960248201527f4552433732313a207472616e73666572206f6620746f6b656e2074686174206960448201526839903737ba1037bbb760b91b6064820152608401610dda565b6001600160a01b0382166135425760405162461bcd60e51b8152602060048201526024808201527f4552433732313a207472616e7366657220746f20746865207a65726f206164646044820152637265737360e01b6064820152608401610dda565b61354d600082613300565b6001600160a01b0383166000908152600360205260408120805460019290613576908490614041565b90915550506001600160a01b03821660009081526003602052604081208054600192906135a4908490613fd3565b909155505060008181526002602052604080822080546001600160a01b0319166001600160a01b0386811691821790925591518493918716917fddf252ad1be2c89b69c2b068fc378daa952ba7f163c4a11628f55a4df523b3ef91a4505050565b600680546001600160a01b038381166001600160a01b0319831681179093556040519116919082907f8be0079c531659141344cd1fd0a4f28419497f9722a3daafe3b4186f6b6457e090600090a35050565b613662848484613465565b61366e84848484613893565b6122c75760405162461bcd60e51b815260206004820152603260248201527f4552433732313a207472616e7366657220746f206e6f6e20455243373231526560448201527131b2b4bb32b91034b6b83632b6b2b73a32b960711b6064820152608401610dda565b606060078054611b2490614084565b6060816137085750506040805180820190915260018152600360fc1b602082015290565b8160005b8115613732578061371c816140e1565b915061372b9050600a83613feb565b915061370c565b6000816001600160401b0381111561375a57634e487b7160e01b600052604160045260246000fd5b6040519080825280601f01601f191660200182016040528015613784576020820181803683370190505b5090505b841561345d57613799600183614041565b91506137a6600a8661413a565b6137b1906030613fd3565b60f81b8183815181106137d457634e487b7160e01b600052603260045260246000fd5b60200101907effffffffffffffffffffffffffffffffffffffffffffffffffffffffffffff1916908160001a90535061380e600a86613feb565b9450613788565b61381f83836139eb565b61382c6000848484613893565b611d4d5760405162461bcd60e51b815260206004820152603260248201527f4552433732313a207472616e7366657220746f206e6f6e20455243373231526560448201527131b2b4bb32b91034b6b83632b6b2b73a32b960711b6064820152608401610dda565b60006001600160a01b0384163b156139e057604051630a85bd0160e11b81526001600160a01b0385169063150b7a02906138d7903390899088908890600401613f0a565b602060405180830381600087803b1580156138f157600080fd5b505af1925050508015613921575060408051601f3d908101601f1916820190925261391e91810190613dee565b60015b6139c6573d80801561394f576040519150601f19603f3d011682016040523d82523d6000602084013e613954565b606091505b5080516139be5760405162461bcd60e51b815260206004820152603260248201527f4552433732313a207472616e7366657220746f206e6f6e20455243373231526560448201527131b2b4bb32b91034b6b83632b6b2b73a32b960711b6064820152608401610dda565b805181602001fd5b6001600160e01b031916630a85bd0160e11b14905061345d565b506001949350505050565b6001600160a01b038216613a415760405162461bcd60e51b815260206004820181905260248201527f4552433732313a206d696e7420746f20746865207a65726f20616464726573736044820152606401610dda565b6000818152600260205260409020546001600160a01b031615613aa65760405162461bcd60e51b815260206004820152601c60248201527f4552433732313a20746f6b656e20616c7265616479206d696e746564000000006044820152606401610dda565b6001600160a01b0382166000908152600360205260408120805460019290613acf908490613fd3565b909155505060008181526002602052604080822080546001600160a01b0319166001600160a01b03861690811790915590518392907fddf252ad1be2c89b69c2b068fc378daa952ba7f163c4a11628f55a4df523b3ef908290a45050565b828054613b3990614084565b90600052602060002090601f016020900481019282613b5b5760008555613ba1565b82601f10613b7457805160ff1916838001178555613ba1565b82800160010185558215613ba1579182015b82811115613ba1578251825591602001919060010190613b86565b50613bad929150613bb1565b5090565b5b80821115613bad5760008155600101613bb2565b60006001600160401b0380841115613be057613be061417a565b604051601f8501601f19908116603f01168101908282118183101715613c0857613c0861417a565b81604052809350858152868686011115613c2157600080fd5b858560208301376000602087830101525050509392505050565b80356001600160a01b0381168114613c5257600080fd5b919050565b80358015158114613c5257600080fd5b600060208284031215613c78578081fd5b6123af82613c3b565b60008060408385031215613c93578081fd5b613c9c83613c3b565b9150613caa60208401613c3b565b90509250929050565b600080600060608486031215613cc7578081fd5b613cd084613c3b565b9250613cde60208501613c3b565b9150604084013590509250925092565b60008060008060808587031215613d03578081fd5b613d0c85613c3b565b9350613d1a60208601613c3b565b92506040850135915060608501356001600160401b03811115613d3b578182fd5b8501601f81018713613d4b578182fd5b613d5a87823560208401613bc6565b91505092959194509250565b60008060408385031215613d78578182fd5b613d8183613c3b565b9150613caa60208401613c57565b60008060408385031215613da1578182fd5b613daa83613c3b565b946020939093013593505050565b600060208284031215613dc9578081fd5b6123af82613c57565b600060208284031215613de3578081fd5b81356123af81614190565b600060208284031215613dff578081fd5b81516123af81614190565b600060208284031215613e1b578081fd5b81356001600160401b03811115613e30578182fd5b8201601f81018413613e40578182fd5b61345d84823560208401613bc6565b600060208284031215613e60578081fd5b5035919050565b600060208284031215613e78578081fd5b81356001600160401b03811681146123af578182fd5b600060208284031215613e9f578081fd5b813560ff811681146123af578182fd5b60008151808452613ec7816020860160208601614058565b601f01601f19169290920160200192915050565b60008351613eed818460208801614058565b835190830190613f01818360208801614058565b01949350505050565b60006001600160a01b03808716835280861660208401525083604083015260806060830152613f3c6080830184613eaf565b9695505050505050565b6020815260006123af6020830184613eaf565b6020808252603c908201527f52696768742068616e64206974656d206e6f742076616c696420666f7220636f60408201527f6d62696e6174696f6e206f662067726f757020616e6420706f73652e00000000606082015260800190565b600061ffff808316818516808303821115613f0157613f0161414e565b60008219821115613fe657613fe661414e565b500190565b600082613ffa57613ffa614164565b500490565b60008160001904831182151516156140195761401961414e565b500290565b600061ffff838116908316818110156140395761403961414e565b039392505050565b6000828210156140535761405361414e565b500390565b60005b8381101561407357818101518382015260200161405b565b838111156122c75750506000910152565b600181811c9082168061409857607f821691505b602082108114156140b957634e487b7160e01b600052602260045260246000fd5b50919050565b600061ffff808316818114156140d7576140d761414e565b6001019392505050565b60006000198214156140f5576140f561414e565b5060010190565b60006001600160401b03808316818114156140d7576140d761414e565b600061ffff8084168061412e5761412e614164565b92169190910692915050565b60008261414957614149614164565b500690565b634e487b7160e01b600052601160045260246000fd5b634e487b7160e01b600052601260045260246000fd5b634e487b7160e01b600052604160045260246000fd5b6001600160e01b03198116811461246c57600080fdfe4f776e61626c653a2063616c6c6572206973206e6f7420746865206f776e6572a2646970667358221220bf1eecd53fd7a178d18012f9b4b4b879da679cc52fd89c0774b53a882a9432aa64736f6c63430008040033",
  "linkReferences": {},
  "deployedLinkReferences": {}
}